:020000040800F2
:10000000005000201D1000086D1000086D10000841
:100010006D1000086D1000086D1000080000000051
:100020000000000000000000000000006D1000084B
:100030006D100008000000006D100008BD0E0008E3
:10004000BF0E0008C10E0008C30E0008C50E000850
:10005000C70E0008C90E0008CB0E0008CD0E000820
:10006000CF0E0008D10E0008D30E0008D50E0008F0
:10007000D70E0008D90E0008DB0E0008DD0E0008C0
:10008000DF0E0008E10E0008E30E0008E50E000890
:10009000E70E0008E90E0008EB0E0008ED0E000860
:1000A000EF0E0008F10E0008F30E0008F50E000830
:1000B000F70E0008F90E0008FB0E0008FD0E000800
:1000C000090F0008150F0008210F00082D0F000868
:1000D0002F0F0008310F0008330F0008350F0008FC
:1000E000370F0008390F0008000000003B0F000820
:1000F0003D0F00083F0F0008410F0008430F0008A4
:10010000450F0008470F0008490F00084B0F000873
:100110004D0F00084F0F0008510F0008530F000843
:10012000550F0008570F0008590F00085B0F000813
:1001300010B5054C237833B9044B13B10448AFF321
:1001400000800123237010BD00000020000000008B
:10015000B810000808B5034B1BB103490348AFF3BF
:10016000008008BD0000000004000020B810000856
:10017000BFF34F8F0549064BCA6802F4E062134390
:10018000CB60BFF34F8F00BFFDE700BF00ED00E085
:100190000400FA05014608B5064800F085FD05484B
:1001A00000F015FD034B9A7A072AFCD101229A72BE
:1001B00008BD00BF1C00002008B5084B01211870C5
:1001C000074800F071FD064800F001FD044B9A7AE3
:1001D000072AFCD101229A7208BD00BF3C00002012
:1001E0001C000020F8B500F0CBFA04460D4800F0E2
:1001F000EEFC0D4F0D4E0B4DAB7A062B02D10123B9
:10020000AB72F8BD00F046FE00F0BAFA001BB8422F
:10021000F2D900F0B5FAF368044683F40053F360B2
:10022000E9E700BF1C0000201FA1070000100140EB
:10023000014B186800BA70473C000020012110B53E
:10024000054B0246187813F8014F0131914280EABC
:100250000400F8D110BD00BF3C00002010B579208B
:10026000FFF7AAFF0B22114B01241A7010225A70BB
:1002700000229A7002221A7111225A7121229A7157
:100280003122DA7144221A7263225A7282229A72DD
:100290009222DA72A1220D20DC701A73FFF77AFF26
:1002A0007920FFF789FF204610BD00BF3C000020E9
:1002B00008B57920FFF780FF1020FFF77DFF792038
:1002C000FFF77AFF012008BD10B57920FFF774FF12
:1002D0000422074B01245A70102203201C709A70CC
:1002E000FFF758FF7920FFF767FF204610BD00BFDA
:1002F0003C00002070B500F037FB012804D11F201E
:10030000FFF75AFF002070BD7920FFF755FFFFF778
:1003100069FF0520FFF792FF0028F0D1FFF788FF63
:1003200005467920FFF748FFFFF75CFF0220FFF743
:1003300085FFFF28E3D1084E79203478FFF73CFF92
:10034000013422463146284600F004FB2046FFF7E0
:1003500021FF0120D7E700BF3C00002070B500F06E
:1003600003FB012804D11F20FFF726FF002070BDEA
:100370007920FFF721FFFFF735FF0520FFF75EFF2C
:100380000028F0D1FFF754FF0E4D04467920FFF707
:1003900013FFFFF727FF2E78F01CFFF74FFF002811
:1003A000E1D1094B9C42DED300F086FA2146721C53
:1003B000681C00F0ABFA00F077FA7920FFF7FCFE3A
:1003C0000120D4E73C000020002800082DE9F0417E
:1003D00000F0CAFA012806D11F20FFF7EDFE002425
:1003E0002046BDE8F081194D7920FFF7E5FEFFF7C3
:1003F000F9FE2E8876BAB6B270000530FFF71EFF00
:1004000004460028E8D100F057FA2746DFF840807C
:100410000136A878EB78013743EA00239B0203F109
:100420000060404505D200F03FFA1F20FFF7C4FEF0
:10043000D6E700F04DFAB74205F10205E9D300F026
:1004400033FA7920FFF7B8FE0124C9E73C00002009
:10045000002400082DE9F04700F086FA012805D1B4
:100460001F20FFF7A9FE0020BDE8F0877920FFF7E5
:10047000A3FEFFF7B7FE0520FFF7E0FE0028EFD14F
:10048000FFF7D6FEB0F1006F0646E9D37920FFF7FB
:1004900093FEFFF7A7FE0520FFF7D0FE0028DFD16F
:1004A000FFF7C6FE05460028DAD010F00308D7D1C2
:1004B0001F4B32189A42D3D87920FFF77DFE76235E
:1004C0004FF0010A1B4F1C4C01211C48237000F007
:1004D000EBFBBA68DFF8649042F00102BA6056F8AC
:1004E00008303B6099F80A30072B07D176230121A9
:1004F000484689F80AA0237000F0D6FB08F10408EA
:100500004545ECD80B4B79201D68FFF755FE2B0EA7
:1005100023702B0C637004202B0AA370E570FFF787
:100520008DFE20710520FFF735FE01209CE700BFFE
:10053000FFFF0108003002403C0000201C000020AA
:10054000024AD36883F40053D3607047001001401F
:100550007047000010B50C4A0C4C0D4B2046C4E906
:1005600000233823237200F039FB2046094C0A4946
:1005700000F098FB00F07AF90D21204600F020FAF7
:100580004FF40053236110BD005800401C000020B0
:10059000016A1800001001403C00002070B50324DF
:1005A0004FF00056064D322000F002F932202E6145
:1005B00000F0FEF84FF40053013C2B61F3D170BD05
:1005C0000010014000224FF0FF31114BDA619A61B7
:1005D0005A6119611A61D960DA601A6842F0010241
:1005E0001A6059680B4A0A405A601A6822F08472ED
:1005F00022F480321A601A6822F480221A605A6843
:1006000022F4FE025A604FF41F029A60704700BF46
:10061000001002400000FFF008B500F099F9034B0C
:10062000034003F160435842584108BD0000FC2FCD
:10063000014B987A704700BF1C00002007B501905D
:100640000198FFF7E9FF88B100F02CFCFFF7BAFF33
:1006500072B6019B074A5B6801999160019A126822
:1006600082F3088803B05DF804EB184703B05DF827
:1006700004FB00BF00ED00E010B500F075F90128A3
:1006800021D07920FFF798FDFFF7ACFD0520FFF79B
:10069000D5FDC0B9FFF7CCFD0D4B0446984206D1FD
:1006A0007920FFF789FDFFF78DFFFFF761FD094B0B
:1006B000984208D1FFF7B0FF28B17920FFF77CFD01
:1006C0002046FFF7BBFF1F20FFF776FD002010BD7F
:1006D000000200200028000808B5FFF783FD1E492E
:1006E0000B784978DA43D2B2914204D0BDE8084091
:1006F0001F20FFF761BD212B22D00FD8022B1BD06A
:1007000006D8ABB1012BF1D1BDE80840FFF7D0BD51
:10071000112BEBD1BDE80840FFF7ECBD442B13D003
:10072000A12B15D0312BE1D1BDE80840FFF716BE53
:10073000BDE80840FFF792BDBDE80840FFF7C4BD23
:10074000BDE80840FFF798BFBDE80840FFF73EBE90
:10075000BDE80840FFF77EBE3C000020064AD36893
:1007600043F08073D3600022044B5A601A6842F051
:1007700001021A60704700BFF0ED00E0001000E0D9
:10078000024B58684823B0FBF3F07047001000E0BC
:10079000054B984207D8482300225843034B5A6020
:1007A0005A689042FCD8704780027503001000E040
:1007B0004FF47A735843FFF7EBBF00000F4B1A68F2
:1007C00042F001021A6059680D4A0A405A601A68DC
:1007D00022F0847222F480321A601A6822F4802295
:1007E0001A605A6822F4FE025A604FF41F029A609F
:1007F0004FF00062034B9A60704700BF0010024048
:100800000000FFF800ED00E038B572B600F0A6FB7E
:1008100000F0FCF8FFF7A2FFFFF79CFE62B6FFF7BF
:10082000BDFE0F48FFF7F8FE98B10E4BD3F8093024
:100830007BB1FFF7A5FF04460B4DFFF7F9FE022839
:1008400007D0FFF79DFF001BA842F6D90448FFF729
:10085000F5FE40F6B83000F0FFFAFFF73DFFFCE789
:1008600000280008002400083F420F00024A536994
:1008700043F040035361704700100240024BD868B8
:10088000C04300F00100704700200240054BD868CB
:1008900010F020001FBFDA68012042F02002DA6069
:1008A000704700BF00200240024A136943F08003F2
:1008B0001361704700200240034B044A5A6002F162
:1008C00088325A60704700BF00200240230167450C
:1008D000014608B5FFF7D2FF0028FBD0FFF7D6FF8F
:1008E000094B1A6942F002021A61596119461A69E4
:1008F00042F040021A61FFF7C9FF0028FBD00B69E4
:1009000023F002030B6108BD0020024070B50646CB
:100910001546FFF7B3FF0028FBD00024FFF7B6FF12
:100920000A4A136943F001031361A54205D1074A3E
:10093000136923F00103136170BD335B0B53FFF7A1
:100940009DFF0028FBD00234EFE700BF00200240EB
:10095000006870470244904200D1704710F8013B94
:1009600001F8013BF7E70000024BD869C0F34000F3
:10097000704700BF002002400D4B984206D10D4A3F
:10098000936943F004030120936170470A4B984236
:1009900004D1084A936943F00803F4E7074B9842EF
:1009A00004D1044A936943F01003ECE70020704738
:1009B0000008014000100240000C014000100140FE
:1009C00010B50446FFF7D8FF80B107294FF00303A5
:1009D0000DD82068890003FA01F2024322602268E0
:1009E000023103FA01F122EA0101216010BD083948
:1009F0006068890003FA01F20243626062680231B2
:100A000003FA01F122EA01016160EFE7054A936907
:100A100043F03D039361A2F58832536843F00073BD
:100A20005360704700100240114A936943F0080375
:100A30009361104B984212D1012903F5384309D133
:100A40000D494A6842F002024A605A6842F0EE02DA
:100A50005A6070471A6842F06E421A607047074B3E
:100A6000984201BF064A536843F46E43536070478F
:100A700000100240005400400000014000580040B7
:100A8000000C0140054B984203F5DE33DA690CBFD8
:100A900042F4001242F48002DA61704700540040D0
:100AA00000224260436843F0240343600D4BC2615F
:100AB0009942C3690BD943F40043C361C36943F04E
:100AC0001E03C361036A43F00C030362704723F4FF
:100AD0000043C361C36943F0B403C361036A43F0D5
:100AE0002403F2E77F1A060000F00700C0F10702B6
:100AF000031D042A28BF0422062B4FF0FF3303FAFC
:100B000002F36FEA030394BF0020033803F00103EC
:100B100003FA00F0704738B51546FFF785FFFFF779
:100B2000B1FF0368294623F001030360036843F41F
:100B300000430360036823F400430360036843F049
:100B400001030360036823F0020303600023436191
:100B5000836943F001038361FFF7A2FF036843F059
:100B60000103036038BD70B51E461546FFF75CFFF4
:100B7000FFF788FF03686D0023F00103036003683B
:100B800005F4FF7543F4004303600368314623F422
:100B900000430360036843F001030360036823F02C
:100BA0000203036000234361836923F0010383612F
:100BB00085600368BDE8704043F480630360FFF71D
:100BC0006FBF0268536823F4E063536070470268A4
:100BD000536843F4E06353607047000070B52B4BDB
:100BE00004460068984233D1294B22791C6063681F
:100BF000C2F34001D207C3F39D032ED41A46FFF778
:100C00008AFF2046234EFFF7E2FF21681F4BF06862
:100C10009942C0F3022024D1FFF766FF1E4D000168
:100C2000C0B285F81F03F068C0F30220FFF75CFF35
:100C30004FF000430001C0B285F820032B60012370
:100C40006B600123A3720B6843F001030B6070BD5E
:100C5000124B9842FBD1124BC7E7227AFFF783FF72
:100C6000CFE7FFF741FF0C4D0001C0B285F821032B
:100C7000F068C0F30220FFF737FF02230001C0B283
:100C800085F822036B600423DAE700BF00540040BC
:100C90004C04002000ED00E000E100E000580040BE
:100CA000500400204161704772B6C16162B670475E
:100CB00010B5046863695B050DD5636923F480632F
:100CC0006361236843F48063236007238372FFF723
:100CD00078FFFFF73DFC6369D9050BD5636923F401
:100CE000807363616369DA0641BF6369236843F017
:100CF0000103236063699B0542BF636923F40073AA
:100D000063616369180542BF636923F4006363612B
:100D10006369D90442BF636923F4805363616369E3
:100D20005A0442BF636923F48043636163691B040F
:100D300042BF636923F40043636110BD08B53B4BB8
:100D400098421CD13A4B186803685A695A6991074E
:100D50001DD55A6892051AD55A699A69002282618E
:100D60009A69510710D503228272C26972B18269F1
:100D700041698A5C1A6183690133836106E02D4B06
:100D8000984203D12C4BDEE70223837208BD5A69D7
:100D9000D2060ED55A6891050BD55A691A6842F0E9
:100DA00001021A6006238372FFF70BFFFFF7C8FBEF
:100DB000ECE79A69520722D5042282725A69110619
:100DC00016D55A68520513D55A69510710D4C2690D
:100DD00032B1826941698A5C1A6182690132826139
:100DE000C269002AD2D15A6822F480625A60CDE7E3
:100DF0005A695207CAD55A689105C7D5B5E75A69E5
:100E000052060CD55A68510509D55A69520706D4BD
:100E100005228272196942698369D154ABE75A6924
:100E20005107B3D55A689205B0D5F1E70054004098
:100E30004C0400200058004050040020034B98420E
:100E40000CBF034B034B1868FFF732BF0054004040
:100E50004C040020500400200C4A536A43F0010364
:100E60005362536A9B07FCD545F25553084A1360F9
:100E7000072353602823434380331B0A93604AF6B9
:100E8000AA2313604CF6CC43136070470010024055
:100E9000003000404AF6AA22014B1A60704700BF9A
:100EA0000030004045F25552034B1A6000229A6010
:100EB0004AF6AA221A607047003000407047704717
:100EC000704770477047704770477047704770476A
:100ED000704770477047704770477047704770475A
:100EE000704770477047704770477047704770474A
:100EF0007047704770477047704770470148FFF769
:100F00001DBF00BF005400400148FFF797BF00BF5E
:100F1000005400400148FFF711BF00BF00580040D7
:100F20000148FFF78BBF00BF005800407047704773
:100F300070477047704770477047704770477047F9
:100F400070477047704770477047704770477047E9
:100F50007047704770477047704770472C4B1A684E
:100F600042F001021A6059682A4A0A405A601A6817
:100F700022F0847222F480321A601A6822F48022ED
:100F80001A605A6822F4FE025A604FF41F029A60F7
:100F90001A6842F480321A606FF07F421968880341
:100FA00001D4013AFAD11A68910330D51A4A11686E
:100FB00041F010011160116821F007011160116802
:100FC00041F0040111605A6842F480625A605A6824
:100FD00022F47C125A605A6842F4E8125A601A6885
:100FE00042F080721A601A689201FCD55A6822F0A9
:100FF00003025A605A6842F002025A605A6802F0CC
:101000000C02082AFAD11A6842F400221A607047CA
:10101000001002400000FFF0002002400D4885460D
:10102000FFF7CCFB0C480D490D4A002302E0D458D1
:10103000C4500433C4188C42F9D30A4A0A4C002322
:1010400001E013600432A242FBD300F011F8FFF775
:10105000DBFBFEE700500020000000200000002025
:10106000D81000080000002054040020FEE7000013
:1010700070B500260C4D0D4C641BA410A64209D17E
:1010800000F01AF800260A4D0A4C641BA410A64270
:1010900005D170BD55F8043B98470136EEE755F889
:1010A000043B98470136F2E7D0100008D010000842
:1010B000D0100008D4100008F8B500BFF8BC08BC78
:1010C0009E467047F8B500BFF8BC08BC9E46704706
:0410D00055010008BE
:0410D40031010008DE
:040000050800101DC2
:00000001FF
