:020000040800F2
:10000000005000200916000859160008591600086B
:10001000591600085916000859160008000000007B
:100020000000000000000000000000005916000859
:10003000591600080000000059160008291400088D
:100040002D14000831140008351400083914000874
:100050003D14000841140008451400084914000824
:100060004D140008511400085514000859140008D4
:100070005D14000861140008651400086914000884
:100080006D14000871140008751400087914000834
:100090007D140008811400088514000889140008E4
:1000A0008D14000891140008951400089914000894
:1000B0009D140008A1140008A5140008A914000844
:1000C000B5140008C1140008CD140008D9140008A4
:1000D000DD140008E1140008E5140008E914000824
:1000E000ED140008F114000800000000F5140008E9
:1000F000F9140008FD140008011500080515000892
:10010000091500080D15000811150008151500083F
:10011000191500081D1500082115000825150008EF
:10012000291500082D15000831150008351500089F
:1001300010B5054C237833B9044B13B10448AFF321
:1001400000800123237010BD00000020000000008B
:10015000A416000808B5034B1BB103490348AFF3CD
:10016000008008BD0000000004000020A416000864
:1001700038B57923134D012113482B7001F05EF837
:10018000114CA37A072BFCD101214AF244100F4AEB
:100190000F4BA17228810A210B48C5E9002301F009
:1001A0004DF8A37A072BFCD1012179230648A172CF
:1001B0002B7001F043F8A37A072BFCD10120A07229
:1001C00038BD00BF3C0000201C00002008010001D9
:1001D000021121312DE9F8437923494E0121494883
:1001E000337001F02BF8474CA37A072BFCD1012385
:1001F000A37200F0F1FC444F0546DFF8108104E0E3
:1002000000F0EAFC401BB8423DD8A37A062BF7D198
:10021000012170783378B2784340F07853403279D6
:1002200043409A42A1725FD179233648D6F80090B4
:10023000337001F003F8A37A072BFCD10123A372DA
:1002400000F0CAFC304F0546DFF8C08004E000F043
:10025000C3FC401BB84220D8A37A062BF7D101215A
:1002600032787378A1725340FF2B20D01F2325488A
:10027000337000F0E3FFA37A072BFCD101230020A9
:10028000A372BDE8F88300F0A7FCD8F80C3005464F
:1002900083F40053C8F80C30B7E700F09DFCD8F8A1
:1002A0000C30054683F40053C8F80C30D4E77923AA
:1002B0001448551C337000F0C1FFA37A072BFCD102
:1002C00001230F4999FA89F02A46A37200F0D4FD60
:1002D00029460C4800F0B2FFA37A072BFCD101237A
:1002E0001846A372BDE8F8831F230648337000F058
:1002F000A5FFA37A072BFCD101230020A372C0E73E
:100300003C0000201C0000201FA10700001001403D
:100310002DE9F8437923564D012156482B7000F002
:100320008DFF544CA37A072BFCD10123A37200F05C
:1003300053FC514F0646DFF84C8104E000F04CFCC2
:10034000801BB84259D8A37A062BF7D101216878CF
:100350002B78AA784340E87853402A7943409A4260
:10036000A1725ED1792343482E682B7000F066FF9E
:10037000A37A072BFCD10123A37200F02DFCDFF838
:10038000F8800746DFF8FC9004E000F025FCC01B75
:1003900040453CD8A37A062BF7D12978344D012368
:1003A00088462A46284601F1030EA372034602330B
:1003B00010F8017F9B1A9E458C4681EA0701F5D80B
:1003C000674548D12D4B36BA9E4237D300F0CAFC60
:1003D00031462B4808F1010200F022FD00F0BAFC82
:1003E0007923012123482B7000F028FFA37A072BE3
:1003F000FCD10120A072BDE8F88300F0EDFBD8F835
:100400000C30064683F40053C8F80C309BE700F02C
:10041000E3FBD9F80C30074683F40053C9F80C30DD
:10042000B8E71F2313482B7000F008FFA37A072BAF
:10043000FCD101230020A372BDE8F8831F23012112
:100440000C482B7000F0FAFEA37A072BFCD1012395
:100450000020A372F0E71F23012106482B7000F053
:10046000EDFEA37A072BFCD101230020A372E3E762
:100470003C0000201C0000201FA1070000280008ED
:100480003D0000200010014079232DE9F047504E37
:1004900001215048337000F0D1FE4E4CA37A072B57
:1004A000FCD10123A37200F097FB4B4F0546DFF808
:1004B000308104E000F090FB401BB8425AD8A37A88
:1004C000062BF7D1012133787078B27843409A42F5
:1004D000A17271D17923B6F800903E4899FA99F942
:1004E0001FFA89F909F10108337000F0A7FEA37A19
:1004F000072BFCD10123A37200F06EFB364F05469B
:10050000DFF8DCA004E000F067FB401BB8423BD8FA
:10051000A37A062BF7D12E4D0121327806EB48083D
:100520002B462E46A17213F8011F1046984582EA09
:100530000102F8D1884231D100F014FC274B03EBC3
:10054000490968780235800200F1006000F016FC6D
:10055000A945F6D100F0FEFB792301211D48337037
:1005600000F06CFEA37A072BFCD101231846A3727E
:10057000BDE8F08700F030FBD8F80C30054683F476
:100580000053C8F80C309AE700F026FBDAF80C307C
:10059000054683F40053CAF80C30B9E71F23012144
:1005A0000C48337000F04AFEA37A072BFCD10123DC
:1005B0000020A372BDE8F0871F230648337000F0C7
:1005C0003DFEA37A072BFCD101230020A372F1E7A3
:1005D0003C0000201C0000201FA107003E0000205E
:1005E000001001402DE9F84F79236C4D01216C4832
:1005F0002B7000F023FE6A4CA37A072BFCD1012359
:10060000A37200F0E9FA674F0646DFF8A48104E020
:1006100000F0E2FA801BB84222D8A37A062BF7D169
:10062000012168782B78AA784340EE7853402A79E4
:10063000286873409A42A17290FA80F802D1B8F10A
:10064000006F17D21F23012155482B7000F0F6FDD3
:10065000A37A072BFCD101230020A372BDE8F88FF9
:1006600000F0BAFAD8F80C30064683F40053C8F804
:100670000C30D2E779234A482B7000F0DFFDA37AD3
:10068000072BFCD10123A37200F0A6FA454F0646C2
:10069000DFF81C9104E000F09FFA801BB84251D8AB
:1006A000A37A062BF7D1012168782B78AA784340EA
:1006B000E87853402A792E6843409A42A17236BAAC
:1006C00036D1AEB316F0030732D1374B08EB060232
:1006D0009A422DD8792332482B7000F0AFFDA37ACF
:1006E000072BFCD14FF00109762349462C482B708B
:1006F00084F80A9000F0A2FD2C4BDFF8A4B09A68B1
:100700009A4642EA09029A6001E0B74224D258F8B8
:1007100007300437CAF80030A37A072BF5D17623C7
:100720000121584684F80A902B7000F087FDECE711
:100730001F2301211A482B7000F080FDA37A072B9C
:10074000FCD188E700F048FAD9F80C30064683F46B
:100750000053C9F80C30A3E77923144A012110484B
:1007600016682B7000F06AFDA37A072BFCD10122DA
:10077000330C83EA16637340DBB283EA1623052148
:1007800036BA07482B712E60A27200F057FDA37A8B
:10079000072BFCD101231846A3725FE73C00002021
:1007A0001C0000201FA107000000020800300240CA
:1007B00000100140024AD36883F40053D3607047AD
:1007C00000100140704700BF382110B5084C094A9D
:1007D000094B2046C4E90023217200F07BFC20462F
:1007E000064900F029FDBDE8104000F097BA00BFAF
:1007F0001C00002000580040016A18003C00002046
:1008000010B50B4800F036FB0A4B00240340B3F14F
:10081000005F02D0204610BD043404F1006000F5F2
:10082000205000F027FB0130F6D1204610BD00BF5C
:10083000002800080000FC2F014B987A704700BF89
:100840001C00002070B5044600F014FB1A4B034056
:10085000B3F1005F2FD172B600F0DAFD4FF0FF3533
:1008600000224FF41F06154B1549186840F001008F
:1008700018605868014059601968124821F0847165
:1008800021F480311960196821F4802119605968B8
:1008900021F4FE0159609E601D611A61DD60DA601D
:1008A000DA619A615A6163688460226882F3088819
:1008B000BDE87040184770BD0000FC2F00100240DA
:1008C0000000FFF000ED00E079232DE9F0414B4FEF
:1008D00001214B483B7000F0B1FC494CA37A072B37
:1008E000FCD10123A37200F077F9464E0546DFF8EC
:1008F0002C8104E000F070F9401BB04221D8A37AAB
:10090000062BF7D1012579783B78BA784B40F978F6
:1009100053403A7938684B409A42A57200BA1AD1CE
:10092000394B984225D01F23012135483B7000F0F8
:1009300085FCA37A072BFCD101230020A372BDE81C
:10094000F08100F049F9D8F80C30054683F40053E3
:10095000C8F80C30D3E71F23294629483B7000F024
:100960006DFCA37A072BFCD101230020A372BDE804
:10097000F08100F07FFA254B0340B3F1005FD2D144
:10098000792329461E483B7000F058FCA37A072BB8
:10099000FCD10123A37200F0E5F91D4800F0EEF947
:1009A00000F0D8F900F0DEF91A49194800F00AFA07
:1009B00000F0D0F9144800F05DFA144B0025034014
:1009C000B3F1005F11D029460F4800F0AFF905469A
:1009D00000F0C8F92946104800F0F4F900F0BAF91F
:1009E0000948FFF72FFF9EE7043505F1006000F589
:1009F000205000F03FFA0130F6D1E4E73C0000203F
:100A00001C0000201FA10700002800080000FC2F88
:100A1000002400080100AAAA0424000800100140D4
:100A2000014800F027BA00BF0024000800F07EB99A
:100A3000014800F01FBA00BF04240008F8B500F018
:100A4000CBF8584C0546584E584F04E000F0C4F817
:100A5000431BB3422AD8A37A062BF7D1544E012563
:100A600033787178DA43D2B29142A5722CD1212B1E
:100A700014D8212B3BD8DFE803F047744B3A3A3ABD
:100A80003A3A3A3A3A3A3A3A3A3A3A703A3A3A3A90
:100A90003A3A3A3A3A3A3A3A3A3A3A36442B7DD0E6
:100AA000A12B0BD1FFF79EFD2846F8BD00F094F86E
:100AB000FB68054683F40053FB60CCE7312B16D16D
:100AC000FFF726FC2846F8BD1F232946354833701A
:100AD00000F0B4FBA37A072BFCD10025012335805D
:100AE0002846A372F8BDFFF7EFFE0120F8BD1F23D3
:100AF00001212C48337000F0A1FBA37A072BFCD115
:100B000001230020A372F8BDFFF732FB0120F8BDDE
:100B1000792301212348337000F090FBA37A072B3F
:100B2000FCD1012040F201421023A07203211D4894
:100B30003280B37000F082FBA37A072BFCD1012135
:100B400079231848A172337000F078FBA37A072B41
:100B5000FCD101252846A572F8BDFFF73BFB01201B
:100B6000F8BD792301210F48337000F067FBA37AA9
:100B7000072BFCD101210B48A172317000F05EFB04
:100B8000A37A072BFCD1012179230648A172337087
:100B900000F054FBA37A072BFCD1DAE7FFF774FCD3
:100BA0002846F8BD1C0000201FA1070000100140CE
:100BB0003C00002000200649064BCA6842F08072C3
:100BC000CA6058601A6842F001021A60704700BF9C
:100BD000F0ED00E0001000E0054A82B05268054BDD
:100BE00001920198A3FB0030000902B0704700BFDA
:100BF000001000E0398EE3384FF47A7303FB00F302
:100C0000084A93420CD8084A10B400241146074BF6
:100C1000546003FB00F04B689842FCD810BC70474E
:100C2000704700BF80027503001000E0401901000A
:100C300030B44FF41F054FF000640E4B0E4A196894
:100C40000E4841F00101196059680A405A601A685B
:100C500022F0847222F480321A601A6822F4802210
:100C60001A605A6822F4FE025A609D60846030BCAB
:100C7000704700BF001002400000FFF800ED00E0E8
:100C800070B572B600F058FC00F000F9FFF792FF63
:100C9000FFF79AFD62B603244FF000561B4D322039
:100CA000FFF7AAFF32202E61FFF7A6FF4FF4005393
:100CB000013C2B61F3D1FFF7A3FD014640B940F69B
:100CC000B83000F07BFBFFF7B9FE00F099FBFAE7C4
:100CD0000F48FFF7ABFE0446FFF7AAFEA042EED195
:100CE000FFF77AFF04460B4E0B4DFFF7A5FD0228D8
:100CF000E5D0FFF795FEB042E1D1FFF76DFF031B92
:100D0000AB42F2D90248FFF79DFDEEE7001001402B
:100D1000002800080100AAAA3F420F00024A5369B6
:100D200043F04003536170470010024010B4084C78
:100D3000A36843F00103A36031B1002350F82320DE
:100D4000043399422260F9D8014B10BC18687047EF
:100D500000300240024A136943F080031361704778
:100D600000200240024B0349034A59605A60704711
:100D70000020024023016745AB89EFCD104AD368BC
:100D8000DB07FCD4D368990603D5D36843F020036E
:100D9000D3600B4A1346116941F0020111615061A1
:100DA000116941F040011161DA689206FCD5DA68F8
:100DB00042F02002DA601A6922F002021A617047DA
:100DC0000020024030B4154AD368DB07FCD4D36856
:100DD0009D0603D5D36843F02003D3600F4C8BB23C
:100DE0002246256945F0010525610380D3689C06EC
:100DF000FCD5D468090C44F02004084BD460418031
:100E0000DA689206FCD530BCDA6842F02002DA607B
:100E10001A6922F001021A61704700BF00200240E7
:100E200010B4134CE368DB07FCD4E3689B0603D5DE
:100E3000E36843F02003E3600D4B1C6944F00104B8
:100E40001C616AB18C18023830F8022F0A80DA6807
:100E5000D207FCD4DA68D207FCD40231A142F3D124
:100E6000034A10BC136923F001031361704700BFEC
:100E7000002002400068704732B10244037801301C
:100E8000904201F8013BF9D1704700BF10B44FF414
:100E900000540D4A0D4891690D4B41F03D0191619F
:100EA000416841F000714160916941F01001916128
:100EB0005A6842F440125A605A6822F440025A605A
:100EC0001C6110BC704700BF0010024000000140D0
:100ED0000010014030B4384C384DA369A84243F0AB
:100EE0000803A3614ED0364B984245D03249CB69B6
:100EF00043F48003CB6100230168324C21F00101EF
:100F000001600168A24241F400410160016821F4DE
:100F100000410160016841F001010160016821F0B8
:100F2000020101604361816941F001018161436017
:100F3000416841F024014160C361C36910D943F4A1
:100F40000043C361C36943F01E03C361036A43F0F6
:100F50000C030362036830BC43F001030360704775
:100F600023F40043C361C36943F0B403C361036A5C
:100F700043F024030362EDE713494B6843F46E43E7
:100F80004B60B3E701290AD00F490B6843F06E4369
:100F90000B600949CB6943F40013CB61ABE7A4F5BF
:100FA00088346368084943F0020363604B6843F088
:100FB000EE034B60EDE700BF00100240005400401C
:100FC000005800407F1A0600000C014070B43C4DF0
:100FD0003C4EAC69B04244F00804AC6156D03A498A
:100FE00088424DD0364CE16941F48001E161002135
:100FF0000468520024F001040460046802F4FF72E3
:1010000044F4004404600468304D24F40044046057
:101010000468AB4244F001040460046824F0020454
:1010200004604161846924F0010484618260026883
:1010300042F4806202604160426842F024024260F1
:10104000C161C36910D943F40043C361C36943F06C
:101050001E03C361036A43F00C030362036870BCA0
:1010600043F001030360704723F40043C361C36985
:1010700043F0B403C361036A43F024030362EDE762
:10108000134C616841F46E416160ABE701290AD0FD
:101090000F4C216841F06E412160094CE16941F437
:1010A0000011E161A3E7A5F588356968084C41F0B6
:1010B00002016960616841F0EE016160EDE700BF27
:1010C0000010024000540040005800407F1A060003
:1010D000000C014038B50446514B0068984263D07B
:1010E000504B984200D038BD4F4B1C602179CB0744
:1010F00052D46268C1F340019208FFF7EBFE226808
:10110000474953688A4243F4E0635360474BD968C8
:10111000C1F30221C1F1070001F1040347D0042803
:1011200028BF0420062B4FF0FF3303FA00F36FEAC9
:10113000030394BF0021033903F001038B403C48B3
:101140001B01DBB2394980F82133C9680225C1F39C
:101150000221C1F107000B1D042828BF0420062B23
:101160004FF0FF3303FA00F36FEA030398BF002147
:101170004FF0040088BF03392B408B4083402C493B
:10118000DBB281F822334D6048600123A3721368FB
:1011900043F00103136038BD6368227AC1F3400154
:1011A0009B08FFF713FFAAE7224B1C609EE7042869
:1011B00028BF0420062B4FF0FF3303FA00F36FEA39
:1011C000030394BF0021033903F001038B40184847
:1011D0001B01DBB2154980F81F33C9684FF0004589
:1011E000C1F30221C1F107000B1D042828BF042010
:1011F000062B4FF0FF3303FA00F36FEA030398BFA7
:1012000000214FF0010088BF033903F002038B4037
:101210001B010749DBB281F820330D604860B4E759
:1012200000540040005800405004002000ED00E051
:1012300000E100E04C04002041617047C16170474B
:10124000314B984238D0314B984200D07047304BE8
:101250001868002130B5026885B05369019393691D
:1012600002930391029B1B040293019B029C234364
:1012700023F07F430393039BB3F1021F1FD0039C12
:10128000244B9C4232D0039C234B9C421ED003999A
:10129000224B994235D00399214B994231D0039B7F
:1012A000102B11D106215369136843F00103136019
:1012B0008172FFF77FFA07E01A4B1868C9E702232B
:1012C000546992698372816105B030BD032404239F
:1012D0005569956984728161837283694169CB5CC8
:1012E000136183690133836105B030BD05238372C7
:1012F000116983694269D15483690133836105B0FF
:1013000030BD0423E8E700BF00540040005800400F
:101310005004002040000200820006008400060005
:10132000800006004C040020214B10B598420CBFF1
:10133000204B214B18680468636959052AD46369F6
:10134000DA0503D5636923F48073636163699B05E0
:1013500003D5636923F4007363616369180503D5DA
:10136000636923F4006363616369D90403D5636926
:1013700023F48053636163695A0403D5636923F4DA
:101380008043636163691B0403D5636923F40043ED
:10139000636110BD0722636923F48063636123687E
:1013A00043F4806323608272FFF70CFAC7E700BF43
:1013B000005400404C040020500400200E4B70B438
:1013C0001A46596A41F001015962536A9B07FCD5DC
:1013D00045F2555607254AF6AA244CF6CC4100EBB7
:1013E0008000C300054A80331B0A16605560936075
:1013F0001460116070BC7047001002400030004063
:101400004AF6AA22014B1A60704700BF0030004024
:1014100045F2555000214AF6AA22024B1860996005
:101420001A60704700300040704700BF704700BF2F
:10143000704700BF704700BF704700BF704700BFD4
:10144000704700BF704700BF704700BF704700BFC4
:10145000704700BF704700BF704700BF704700BFB4
:10146000704700BF704700BF704700BF704700BFA4
:10147000704700BF704700BF704700BF704700BF94
:10148000704700BF704700BF704700BF704700BF84
:10149000704700BF704700BF704700BF704700BF74
:1014A000704700BF704700BF0148FFF7C9BE00BFCB
:1014B000005400400148FFF737BF00BF0054004010
:1014C0000148FFF7BDBE00BF005800400148FFF7CC
:1014D0002BBF00BF00580040704700BF704700BFDF
:1014E000704700BF704700BF704700BF704700BF24
:1014F000704700BF704700BF704700BF704700BF14
:10150000704700BF704700BF704700BF704700BF03
:10151000704700BF704700BF704700BF704700BFF3
:10152000704700BF704700BF704700BF704700BFE3
:10153000704700BF704700BF30B44FF41F052F4BFA
:101540002F4A19684FF6FF7041F001011960596880
:101550001C460A405A601A6822F0847222F48032D3
:101560001A601A6822F480221A605A6822F4FE0275
:101570005A609D601A6842F480321A6001E00138B6
:1015800002D023689903FAD51C4B1A68920332D50E
:101590001A461C49086840F010000860086820F0EE
:1015A00007000860086840F004000860596841F4CA
:1015B00080615960596821F47C115960596841F47F
:1015C000E8115960196841F08071196013689B0136
:1015D000FCD55368094923F003035360536843F073
:1015E000020353604B6803F00C03082BFAD10B681D
:1015F00043F400230B6030BC704700BF0010024072
:101600000000FFF0002002400D488546FFF710FB68
:101610000C480D490D4A002302E0D458C45004334D
:10162000C4188C42F9D30A4A0A4C002301E0136023
:101630000432A242FBD300F011F8FFF721FBFEE7D2
:10164000005000200000002000000020C416000808
:101650000000002054040020FEE7000070B50026C2
:101660000C4D0D4C641BA410A64209D100F01AF8D1
:1016700000260A4D0A4C641BA410A64205D170BD79
:1016800055F8043B98470136EEE755F8043B984778
:101690000136F2E7BC160008BC160008BC160008AC
:1016A000C0160008F8B500BFF8BC08BC9E467047DD
:0C16B000F8B500BFF8BC08BC9E467047AF
:0416BC0055010008CC
:0416C00031010008EC
:0400000508001609D0
:00000001FF
