:020000040800F2
:100000000050002005100008551000085510000889
:100010005510000855100008551000080000000099
:100020000000000000000000000000005510000863
:10003000551000080000000055100008A50E00082B
:10004000A70E0008A90E0008AB0E0008AD0E0008B0
:10005000AF0E0008B10E0008B30E0008B50E000880
:10006000B70E0008B90E0008BB0E0008BD0E000850
:10007000BF0E0008C10E0008C30E0008C50E000820
:10008000C70E0008C90E0008CB0E0008CD0E0008F0
:10009000CF0E0008D10E0008D30E0008D50E0008C0
:1000A000D70E0008D90E0008DB0E0008DD0E000890
:1000B000DF0E0008E10E0008E30E0008E50E000860
:1000C000F10E0008FD0E0008090F0008150F0008CA
:1000D000170F0008190F00081B0F00081D0F00085C
:1000E0001F0F0008210F000800000000230F000868
:1000F000250F0008270F0008290F00082B0F000804
:100100002D0F00082F0F0008310F0008330F0008D3
:10011000350F0008370F0008390F00083B0F0008A3
:100120003D0F00083F0F0008410F0008430F000873
:1001300010B5054C237833B9044B13B10448AFF321
:1001400000800123237010BD00000020000000008B
:10015000A010000808B5034B1BB103490348AFF3D7
:10016000008008BD0000000004000020A01000086E
:10017000014608B5044800F0A7FD034B9A7A072A08
:10018000FCD101229A7208BD1C00002008B5064B64
:1001900001211870054800F097FD044B9A7A072A50
:1001A000FCD101229A7208BD3C0000201C000020F6
:1001B000F8B500F0BBFA04460A4E0B4D0B4FBB7A64
:1001C000062B02D10123BB72F8BD00F0AFFA001B71
:1001D000B042F4D900F0AAFAEB68044683F4005365
:1001E000EB60EBE71FA10700001001401C0000209E
:1001F000014B186800BA70473C000020012110B57F
:10020000054B0246187813F8014F0131914280EAFC
:100210000400F8D110BD00BF3C00002010B57920CB
:10022000FFF7B4FF0A220F4B01241A7000229A70C4
:1002300002221A7111225A7121229A713122DA7125
:1002400044221A72FF225A729A72A1220C205C7008
:10025000DC70DA72FFF78CFF7920FFF797FF2046FA
:1002600010BD00BF3C00002008B57920FFF78EFFCD
:100270000120FFF78BFF7920FFF788FF012008BDE1
:1002800010B501247920FFF781FF084B03201A687D
:10029000074BC2F303211C7059709A70FFF768FF77
:1002A0007920FFF773FF204610BD00BF002004E057
:1002B0003C00002070B500F059FB012804D11F203C
:1002C000FFF764FF002070BD7920FFF75FFFFFF7A5
:1002D0006FFF0520FFF792FF0028F0D1FFF788FF9E
:1002E00005467920FFF752FFFFF762FF0220FFF774
:1002F00085FFFF28E3D1084E79203478FFF746FFC9
:10030000013422463146284600F026FB2046FFF7FE
:100310002FFF0120D7E700BF3C00002070B500F0A0
:1003200025FB012804D11F20FFF730FF002070BDFE
:100330007920FFF72BFFFFF73BFF0520FFF75EFF5C
:100340000028F0D1FFF754FF0E4D04467920FFF747
:100350001DFFFFF72DFF2E78F01CFFF74FFF002841
:10036000E1D1094B9C42DED300F0A8FA2146721C71
:10037000681C00F0CDFA00F099FA7920FFF706FF2B
:100380000120D4E73C000020002800082DE9F041BE
:1003900000F0ECFA012806D11F20FFF7F7FE002538
:1003A0002846BDE8F0817920FFF7F0FEFFF700FF57
:1003B0000320FFF723FF0028EED1184E7920348860
:1003C000FFF7E4FE64BAA4B20134FFF7F1FE600067
:1003D0000130FFF713FF05460028DDD100F06EFA6B
:1003E0002F46DFF83C807078800200F100604045C5
:1003F00005D200F05BFA1F20FFF7C8FED0E70137F7
:1004000000F068FABC4206F10206ECD800F04EFAA1
:100410007920FFF7BBFE0125C2E700BF3C000020AA
:10042000002400082DE9F04700F0A0FA012805D1CA
:100430001F20FFF7ABFE0020BDE8F0877920FFF713
:10044000A5FEFFF7B5FE0520FFF7D8FE0028EFD187
:10045000FFF7CEFEB0F1006F0646E9D37920FFF733
:1004600095FEFFF7A5FE0520FFF7C8FE0028DFD1A7
:10047000FFF7BEFE05460028DAD010F00308D7D1FA
:100480001F4B32189A42D3D87920FFF77FFE76238C
:100490004FF0010A1B4F1C4C01211C48237000F037
:1004A00013FCBA68DFF8649042F00102BA6056F8B3
:1004B00008303B6099F80A30072B07D176230121D9
:1004C000484689F80AA0237000F0FEFB08F10408F2
:1004D0004545ECD80B4B79201D68FFF757FE2B0ED6
:1004E00023702B0C637004202B0AA370E570FFF7B8
:1004F00085FE20710520FFF73BFE01209CE700BF31
:1005000000000208003002403C0000201C000020D7
:10051000024AD36883F40053D3607047001001404F
:100520007047000010B5094A094C0A4B2046C4E93F
:1005300000233823237200F061FB2046064900F0B7
:10054000C1FBBDE8104000F081B900BF0058004079
:100550001C000020016A18003C00002008B500F0D3
:1005600095FC124B1A6842F001021A605968104A51
:100570000A405A601A684FF0FF3122F0847222F468
:1005800080321A601A6822F480221A605A6822F4B3
:10059000FE025A604FF41F029A60002219611A612C
:1005A000D960DA60DA619A615A6108BD00100240D0
:1005B0000000FFF008B500F0CDF9034B034003F154
:1005C00060435842584108BD0000FC2F10B509484F
:1005D000FFF7F0FF044640B1002404F1006000F58D
:1005E000205000F0B7F9013001D1204610BD04348D
:1005F000F3E700BF00280008014B987A704700BF5E
:100600001C00002010B50446FFF7D4FF58B172B6A5
:10061000FFF7A4FF044A63689460226882F30888A5
:10062000BDE81040184710BD00ED00E010B500F027
:100630009DF9012817D07920FFF7A8FDFFF7B8FD35
:100640000520FFF7DBFD70B9FFF7D2FD084B04462C
:10065000984208D1FFF7AEFF28B17920FFF796FD49
:100660002046FFF7CFFF1F20FFF790FD002010BDB1
:100670000028000800F0F2B8014800F06BB900BF94
:100680000424000808B5FFF793FD1E490B7849784C
:10069000DA43D2B2914204D0BDE808401F20FFF7F0
:1006A00075BD212B22D00FD8022B1BD006D8ABB1A1
:1006B000012BF1D1BDE80840FFF7D6BD112BEBD1DE
:1006C000BDE80840FFF7F6BD442B13D0A12B15D091
:1006D000312BE1D1BDE80840FFF720BEBDE808405E
:1006E000FFF79CBDBDE80840FFF7CABDBDE8084064
:1006F000FFF79CBFBDE80840FFF748BEBDE80840D3
:10070000FFF790BE3C000020064AD36843F0807398
:10071000D3600022044B5A601A6842F001021A604A
:10072000704700BFF0ED00E0001000E0044B82B025
:100730005B68019348230198B0FBF3F002B0704767
:10074000001000E0054B984207D848230022584388
:10075000034B5A605A689042FCD870478002750378
:10076000001000E04FF47A735843FFF7EBBF00002E
:100770000F4B1A6842F001021A6059680D4A0A408C
:100780005A601A6822F0847222F480321A601A6861
:1007900022F480221A605A6822F4FE025A604FF452
:1007A0001F029A604FF00062034B9A60704700BFCF
:1007B000001002400000FFF800ED00E070B572B6D6
:1007C00000F0C0FB00F024F9FFF79EFFFFF7AAFE40
:1007D00062B603244FF00056194D3220FFF7C2FFD6
:1007E00032202E61FFF7BEFF4FF40053013C2B6116
:1007F000F3D1FFF7EBFE014640B940F6B83000F008
:100800001FFBFFF73FFF00F039FBFAE70D48FFF74A
:1008100031FF0446FFF730FFA042EED1FFF786FF1D
:100820000446094D074EFFF7E7FE0228E5D0FFF723
:100830007DFF001BA842F6D93046FFF7E3FEF2E742
:1008400000100140002800083F420F00024A53698F
:1008500043F040035361704700100240074B10B54E
:100860009A6842F001029A6000228A4201D3186815
:1008700010BD50F8224004321C60F6E70030024000
:10088000024BD868C04300F00100704700200240CE
:10089000054BD86810F020001FBFDA68012042F035
:1008A0002002DA60704700BF00200240024A13694C
:1008B00043F080031361704700200240034B044A59
:1008C0005A6002F188325A60704700BF002002402F
:1008D00023016745014608B5FFF7D2FF0028FBD08A
:1008E000FFF7D6FF094B1A6942F002021A615961FB
:1008F00019461A6942F040021A61FFF7C9FF002841
:10090000FBD00B6923F002030B6108BD00200240FD
:1009100070B506461546FFF7B3FF0028FBD000244C
:10092000FFF7B6FF0A4A136943F001031361A542BA
:1009300005D1074A136923F00103136170BD335BCE
:100940000B53FFF79DFF0028FBD00234EFE700BFF9
:1009500000200240006870470244904200D1704776
:1009600010F8013B01F8013BF7E70000024BD869A2
:10097000C0F34000704700BF002002400D4B98427A
:1009800006D10D4A936943F0040301209361704737
:100990000A4B984204D1084A936943F00803F4E7EC
:1009A000074B984204D1044A936943F01003ECE7E3
:1009B000002070470008014000100240000C014078
:1009C0000010014010B50446FFF7D8FF80B1072999
:1009D0004FF003030DD82068890003FA01F20243A7
:1009E00022602268023103FA01F122EA010121604A
:1009F00010BD08396068890003FA01F202436260A1
:100A00006268023103FA01F122EA01016160EFE755
:100A10000A4A10B593690A4C43F03D039361A2F56D
:100A2000883253680D2143F0007353602046FFF76E
:100A3000C9FF4FF40053236110BD00BF00100240F6
:100A400000100140042383728269416903688A5C53
:100A50001A6183690133836170470000114A936909
:100A600043F008039361104B984212D1012903F51A
:100A7000384309D10D494A6842F002024A605A6877
:100A800042F0EE025A6070471A6842F06E421A60F5
:100A90007047074B984201BF064A536843F46E43C0
:100AA00053607047001002400054004000000140B5
:100AB00000580040000C0140054B984203F5DE331E
:100AC000DA690CBF42F4001242F48002DA61704726
:100AD0000054004000224260436843F02403436016
:100AE0000D4BC2619942C3690BD943F40043C36102
:100AF000C36943F01E03C361036A43F00C0303623E
:100B0000704723F40043C361C36943F0B403C36176
:100B1000036A43F02403F2E77F1A060000F007009F
:100B2000C0F10702031D042A28BF0422062B4FF040
:100B3000FF3303FA02F36FEA030394BF0020033884
:100B400003F0010303FA00F0704738B51546FFF7CC
:100B500085FFFFF7B1FF0368294623F00103036017
:100B6000036843F400430360036823F40043036015
:100B7000036843F001030360036823F0020303608A
:100B800000234361836943F001038361FFF7A2FF00
:100B9000036843F00103036038BD70B515461E4677
:100BA000FFF75CFFFFF788FF03686D0023F0010388
:100BB0000360036805F4FF7543F4004303600368B2
:100BC000314623F400430360036843F001030360EC
:100BD000036823F00203036000234361836923F069
:100BE000010383618560036843F480630360FFF75A
:100BF00071FF036843F00103036070BD70B52B4BB8
:100C000004460068984234D1294B22791C606368FD
:100C1000C2F34001D207C3F39D032FD41A46FFF756
:100C200094FF2168234E4B6843F4E0634B601F4BF5
:100C3000F0689942C0F3022024D1FFF76FFF1E4DE8
:100C40000001C0B285F81F03F068C0F30220FFF76F
:100C500065FF4FF000430001C0B285F820032B6010
:100C600001236B600123A3720B6843F001030B6047
:100C700070BD124B9842FBD1114BC6E7227AFFF7A9
:100C80008CFFCEE7FFF74AFF0B4D0001C0B285F89D
:100C90002103F068C0F30220FFF740FF02230001A8
:100CA000C0B285F822036B600423DAE700540040E9
:100CB0004C04002000ED00E000E100E0005800409E
:100CC0005004002041617047C161704710B504684D
:100CD000626952050BD5626922F480626261226802
:100CE00042F48062226007228272FFF719FC636976
:100CF000D9050BD5636923F4807363616369DA06F0
:100D000041BF6369236843F00103236063699B0566
:100D100042BF636923F4007363616369180542BFCE
:100D2000636923F4006363616369D90442BF636943
:100D300023F48053636163695A0442BF636923F4F7
:100D40008043636163691B0442BF636923F400430A
:100D5000636110BD1FB52B4B98421CD12A4B00215B
:100D6000186803685A6901929A6902920391029A7B
:100D700012040292019A029C224322F07F420392C3
:100D8000039AB2F1021F0BD15A699B690223837245
:100D9000816104B010BD1D4B9842FAD11C4BDEE7B7
:100DA000039C1C4A944209D1052282721969426946
:100DB0008369D154836901338361EAE7039C164A4E
:100DC000944209D15A699B6903238372816104B0FB
:100DD000BDE81040FFF736BE0399104A9142F6D0A5
:100DE00003990F4A9142F2D0039A102AD1D15A693D
:100DF0001A6842F001021A6006238372FFF788FB2B
:100E0000C7E700BF005400404C04002000580040D9
:100E1000500400204000020082000600840006000A
:100E200080000600034B98420CBF034B034B18682D
:100E3000FFF74CBF005400404C0400205004002039
:100E40000C4A536A43F001035362536A9B07FCD573
:100E500045F25553084A1360072353602823434340
:100E600080331B0A93604AF6AA2313604CF6CC43E6
:100E70001360704700100240003000404AF6AA227A
:100E8000014B1A60704700BF0030004045F25552D8
:100E9000034B1A6000229A604AF6AA221A60704731
:100EA0000030004070477047704770477047704788
:100EB000704770477047704770477047704770477A
:100EC000704770477047704770477047704770476A
:100ED000704770477047704770477047704770475A
:100EE000704770470148FFF735BF00BF005400400E
:100EF0000148FFF797BF00BF005400400148FFF7CB
:100F000029BF00BF005800400148FFF78BBF00BF5A
:100F100000580040704770477047704770477047EF
:100F20007047704770477047704770477047704709
:100F300070477047704770477047704770477047F9
:100F4000704770472C4B1A6842F001021A605968CA
:100F50002A4A0A405A601A6822F0847222F48032C7
:100F60001A601A6822F480221A605A6822F4FE027B
:100F70005A604FF41F029A601A6842F480321A6075
:100F80004FF6FF721968880301D4013AFAD11A6842
:100F9000910330D51A4A116841F0100111601168AF
:100FA00021F007011160116841F0040111605A68D5
:100FB00042F480625A605A6822F47C125A605A687D
:100FC00042F4E8125A601A6842F080721A601A6895
:100FD0009201FCD55A6822F003025A605A6842F026
:100FE00002025A605A6802F00C02082AFAD11A6802
:100FF00042F400221A607047001002400000FFF027
:10100000002002400D488546FFF7B2FB0C480D4911
:101010000D4A002302E0D458C4500433C4188C4253
:10102000F9D30A4A0A4C002301E013600432A242B9
:10103000FBD300F011F8FFF7C1FBFEE700500020E2
:101040000000002000000020C01000080000002068
:1010500054040020FEE7000070B500260C4D0D4C36
:10106000641BA410A64209D100F01AF800260A4D0C
:101070000A4C641BA410A64205D170BD55F8043B70
:1010800098470136EEE755F8043B98470136F2E7FA
:10109000B8100008B8100008B8100008BC1000080C
:1010A000F8B500BFF8BC08BC9E467047F8B500BF55
:0810B000F8BC08BC9E46704725
:0410B80055010008D6
:0410BC0031010008F6
:0400000508001005DA
:00000001FF
