:020000040800F2
:100000000050002015100008651000086510000859
:100010006510000865100008651000080000000069
:100020000000000000000000000000006510000853
:10003000651000080000000065100008B50E0008FB
:10004000B70E0008B90E0008BB0E0008BD0E000870
:10005000BF0E0008C10E0008C30E0008C50E000840
:10006000C70E0008C90E0008CB0E0008CD0E000810
:10007000CF0E0008D10E0008D30E0008D50E0008E0
:10008000D70E0008D90E0008DB0E0008DD0E0008B0
:10009000DF0E0008E10E0008E30E0008E50E000880
:1000A000E70E0008E90E0008EB0E0008ED0E000850
:1000B000EF0E0008F10E0008F30E0008F50E000820
:1000C000010F00080D0F0008190F0008250F000888
:1000D000270F0008290F00082B0F00082D0F00081C
:1000E0002F0F0008310F000800000000330F000838
:1000F000350F0008370F0008390F00083B0F0008C4
:100100003D0F00083F0F0008410F0008430F000893
:10011000450F0008470F0008490F00084B0F000863
:100120004D0F00084F0F0008510F0008530F000833
:1001300010B5054C237833B9044B13B10448AFF321
:1001400000800123237010BD00010020000000008A
:10015000B010000808B5034B1BB103490348AFF3C7
:10016000008008BD0000000004010020B01000085D
:10017000BFF34F8F0549064BCA6802F4E062134390
:10018000CB60BFF34F8F00BFFDE700BF00ED00E085
:100190000400FA05014608B5064800F0B1FD05481F
:1001A00000F041FD034B9A7A072AFCD101229A7292
:1001B00008BD00BF1C01002008B5084B01211870C4
:1001C000074800F09DFD064800F02DFD044B9A7A8B
:1001D000072AFCD101229A7208BD00BF3C01002011
:1001E0001C010020F8B500F0F3FA04460C4800F0BA
:1001F0001AFD0C4F0C4E0A4DAB7A062B02D101238F
:10020000AB72F8BD00F0E4FA001BB842F4D900F07C
:10021000DFFAF368044683F40053F360EBE700BFB2
:100220001C0100201FA1070000100140014B1868AD
:1002300000BA70473C010020012110B5054B024671
:10024000187813F8014F0131914280EA0400F8D187
:1002500010BD00BF3C01002010B57920FFF7ACFFB6
:100260000B22114B01241A7010225A7000229A702E
:1002700002221A7111225A7121229A713122DA71E5
:1002800044221A7263225A7282229A729222DA727B
:10029000A1220D20DC701A73FFF77CFF7920FFF795
:1002A0008BFF204610BD00BF3C01002008B579201F
:1002B000FFF782FF1020FFF77FFF7920FFF77CFF19
:1002C000012008BD10B57920FFF776FF0422074B07
:1002D00001245A70102203201C709A70FFF75AFFF5
:1002E0007920FFF769FF204610BD00BF3C010020C8
:1002F00070B500F065FB012804D11F20FFF75CFFFB
:10030000002070BD7920FFF757FFFFF76BFF052036
:10031000FFF792FF0028F0D1FFF788FF054679200C
:10032000FFF74AFFFFF75EFF0220FFF785FFFF2878
:10033000E3D1084E79203478FFF73EFF013422469E
:100340003146284600F032FB2046FFF723FF01200C
:10035000D7E700BF3C01002070B500F031FB012859
:1003600004D11F20FFF728FF002070BD7920FFF780
:1003700023FFFFF737FF0520FFF75EFF0028F0D1CE
:10038000FFF754FF0E4D04467920FFF715FFFFF7E6
:1003900029FF2E78F01CFFF74FFF0028E1D1094B11
:1003A0009C42DED300F0B4FA2146721C681C00F0B7
:1003B000D9FA00F0A5FA7920FFF7FEFE0120D4E774
:1003C0003C010020002400082DE9F04100F0F8FA7B
:1003D000012806D11F20FFF7EFFE00242046BDE8CC
:1003E000F081194D7920FFF7E7FEFFF7FBFE2E881D
:1003F00076BAB6B270000530FFF71EFF044600283B
:10040000E8D100F085FA2746DFF840800136A87869
:10041000EB78013743EA00239B0203F1006040457B
:1004200005D200F06DFA1F20FFF7C6FED6E700F0F8
:100430007BFAB74205F10205E9D300F061FA7920B1
:10044000FFF7BAFE0124C9E73C01002000240008A0
:100450002DE9F04700F0B4FA012805D11F20FFF77D
:10046000ABFE0020BDE8F0877920FFF7A5FEFFF77F
:10047000B9FE0520FFF7E0FE0028EFD1FFF7D6FE1A
:10048000B0F1006F0646E9D37920FFF795FEFFF73C
:10049000A9FE0520FFF7D0FE0028DFD1FFF7C6FE3A
:1004A00005460028DAD010F00308D7D11F4B3218C8
:1004B0009A42D3D87920FFF77FFE76234FF0010AC6
:1004C0001B4F1C4C01211C48237000F019FCBA681A
:1004D000DFF8649042F00102BA6056F808303B60E1
:1004E00099F80A30072B07D176230121484689F86D
:1004F0000AA0237000F004FC08F104084545ECD87C
:100500000B4B79201D68FFF757FE2B0E23702B0C29
:10051000637004202B0AA370E570FFF78DFE207135
:100520000520FFF737FE01209CE700BFFFFF010811
:10053000003002403C0100201C010020024AD36828
:1005400083F40053D36070470010014010B50C4A8B
:100550000C4C0D4B2046C4E900233823237200F0D5
:1005600069FB2046094C0A4900F0C8FB00F0AAF9D3
:100570000D21204600F050FA4FF40053236110BDC6
:10058000005800401C010020016A180000100140C2
:100590003C01002070B503244FF00056064D322078
:1005A00000F02EF932202E6100F02AF94FF40053AA
:1005B000013C2B61F3D170BD0010014000224FF0CF
:1005C000FF31114BDA619A615A6119611A61D96080
:1005D000DA601A6842F001021A6059680B4A0A4050
:1005E0005A601A6822F0847222F480321A601A6803
:1005F00022F480221A605A6822F4FE025A604FF4F4
:100600001F029A60704700BF001002400000FFF018
:1006100008B500F0C9F9034B034003F160435842A9
:10062000584108BD0000FC2F014B987A704700BF6D
:100630001C01002007B501900198FFF7E9FF78B190
:10064000FFF7BCFF72B6019B074A5B680199916096
:10065000019A126882F3088803B05DF804EB18472A
:1006600003B05DF804FB00BF00ED00E010B500F042
:10067000A7F9012821D07920FFF79EFDFFF7B2FDF1
:100680000520FFF7D9FDC0B9FFF7D0FD0D4B04469B
:10069000984206D17920FFF78FFDFFF78FFFFFF714
:1006A00067FD094B984208D1FFF7B2FF28B17920C6
:1006B000FFF782FD2046FFF7BDFF1F20FFF77CFDFF
:1006C000002010BD000200200028000810B5234CB7
:1006D000FFF788FD23786178DA43D2B2914206D0E1
:1006E0001F20FFF769FD00232370637010BD212BCD
:1006F00027D010D8022B20D007D8B3B1012B18D0A7
:100700001F20BDE81040FFF757BD112BF8D1BDE801
:100710001040FFF7EDBD442B17D0A12B19D0312B82
:10072000EED1BDE81040FFF717BEBDE81040FFF75F
:1007300093BDBDE81040FFF7B9BDBDE81040FFF71D
:10074000C1BDBDE81040FFF791BFBDE81040FFF705
:100750003BBEBDE81040FFF77BBE00BF3C01002060
:10076000094B0A4A196891420DD000225A609A60DA
:100770006FF001021A706FF035025A706FF052027A
:100780009A700B22DA70704700000020FECAAD0B91
:10079000014B5868704700BF00000020024A5368B0
:1007A00023EA00035360704700000020064AD36824
:1007B00043F08073D3600022044B5A601A6842F001
:1007C00001021A60704700BFF0ED00E0001000E089
:1007D000024B58684823B0FBF3F07047001000E06C
:1007E000054B984207D8482300225843034B5A60D0
:1007F0005A689042FCD8704780027503001000E0F0
:100800004FF47A735843FFF7EBBF00000F4B1A68A1
:1008100042F001021A6059680D4A0A405A601A688B
:1008200022F0847222F480321A601A6822F4802244
:100830001A605A6822F4FE025A604FF41F029A604E
:100840004FF00062034B9A60704700BF00100240F7
:100850000000FFF800ED00E038B572B600F07AFB5A
:1008600000F000F9FFF7A2FFFFF770FEFFF778FF37
:1008700062B6FFF78FFEFFF78BFFC30705D5012098
:10088000FFF78CFFFFF722FFFCE70B4B5A884CF673
:10089000FE239A42F6D1FFF79BFF0446074DFFF770
:1008A000C3FE0228EED0FFF793FF001BA842F6D943
:1008B0000348FFF7BFFEE5E7002400083F420F00B2
:1008C00000280008024A536943F04003536170470F
:1008D00000100240024BD868C04300F0010070478E
:1008E00000200240054BD86810F020001FBFDA68D6
:1008F000012042F02002DA60704700BF0020024071
:10090000024A136943F080031361704700200240DC
:10091000034B044A5A6002F188325A60704700BFA4
:100920000020024023016745014608B5FFF7D2FFCA
:100930000028FBD0FFF7D6FF094B1A6942F00202EC
:100940001A61596119461A6942F040021A61FFF7AB
:10095000C9FF0028FBD00B6923F002030B6108BD1F
:100960000020024070B506461546FFF7B3FF002889
:10097000FBD00024FFF7B6FF0A4A136943F00103D6
:100980001361A54205D1074A136923F001031361DE
:1009900070BD335B0B53FFF79DFF0028FBD0023483
:1009A000EFE700BF00200240006870470244904219
:1009B00000D1704710F8013B01F8013BF7E7000058
:1009C000024BD869C0F34000704700BF00200240CE
:1009D0000D4B984206D10D4A936943F00403012060
:1009E000936170470A4B984204D1084A936943F0D7
:1009F0000803F4E7074B984204D1044A936943F093
:100A00001003ECE70020704700080140001002408E
:100A1000000C01400010014010B50446FFF7D8FF5C
:100A200080B107294FF003030DD82068890003FA2D
:100A300001F2024322602268023103FA01F122EA44
:100A40000101216010BD08396068890003FA01F2D4
:100A5000024362606268023103FA01F122EA010195
:100A60006160EFE7054A936943F03D039361A2F5A6
:100A70008832536843F0007353607047001002409F
:100A8000114A936943F008039361104B984212D1C5
:100A9000012903F5384309D10D494A6842F00202A1
:100AA0004A605A6842F0EE025A6070471A6842F093
:100AB0006E421A607047074B984201BF064A53685E
:100AC00043F46E43536070470010024000540040EE
:100AD0000000014000580040000C0140054B9842C6
:100AE00003F5DE33DA690CBF42F4001242F48002EF
:100AF000DA6170470054004000224260436843F0CE
:100B0000240343600D4BC2619942C3690BD943F47E
:100B10000043C361C36943F01E03C361036A43F02A
:100B20000C030362704723F40043C361C36943F0BD
:100B3000B403C361036A43F02403F2E77F1A06009B
:100B400000F00700C0F10702031D042A28BF042299
:100B5000062B4FF0FF3303FA02F36FEA030394BF4F
:100B60000020033803F0010303FA00F0704738B5A2
:100B70001546FFF785FFFFF7B1FF0368294623F00D
:100B800001030360036843F400430360036823F434
:100B900000430360036843F001030360036823F02C
:100BA0000203036000234361836943F0010383610F
:100BB000FFF7A2FF036843F00103036038BD70B57F
:100BC0001E461546FFF75CFFFFF788FF03686D00C0
:100BD00023F001030360036805F4FF7543F4004349
:100BE00003600368314623F400430360036843F065
:100BF00001030360036823F00203036000234361E1
:100C0000836923F00103836185600368BDE8704058
:100C100043F480630360FFF76FBF0268536823F4F7
:100C2000E063536070470268536843F4E0635360C5
:100C30007047000070B52B4B04460068984233D1D2
:100C4000294B22791C606368C2F34001D207C3F3C9
:100C50009D032ED41A46FFF78AFF2046234EFFF746
:100C6000E2FF21681F4BF0689942C0F3022024D1B3
:100C7000FFF766FF1E4D0001C0B285F81F03F06844
:100C8000C0F30220FFF75CFF4FF000430001C0B249
:100C900085F820032B6001236B600123A3720B688E
:100CA00043F001030B6070BD124B9842FBD1124B15
:100CB000C7E7227AFFF783FFCFE7FFF741FF0C4D2D
:100CC0000001C0B285F82103F068C0F30220FFF7ED
:100CD00037FF02230001C0B285F822036B600423B2
:100CE000DAE700BF005400404C05002000ED00E0B2
:100CF00000E100E0005800405005002041617047CD
:100D000072B6C16162B67047704710B50468636916
:100D10005B050DD5636923F480636361236843F445
:100D20008063236007238372FFF777FFFFF7ECFFF1
:100D30006369D9050BD5636923F4807363616369C3
:100D4000DA0641BF6369236843F0010323606369E6
:100D50009B0542BF636923F40073636163691805EF
:100D600042BF636923F4006363616369D90442BFCE
:100D7000636923F48053636163695A0442BF636902
:100D800023F48043636163691B0442BF636923F4F6
:100D90000043636110BD000008B53B4B98421CD175
:100DA0003A4B186803685A695A6991071DD55A6801
:100DB00092051AD55A699A69002282619A69510787
:100DC00010D503228272C26972B1826941698A5C5C
:100DD0001A6183690133836106E02D4B984203D188
:100DE0002C4BDEE70223837208BD5A69D2060ED56A
:100DF0005A6891050BD55A691A6842F001021A60C7
:100E000006238372FFF709FFFFF798FBECE79A6967
:100E1000520722D5042282725A69110616D55A68E1
:100E2000520513D55A69510710D4C26932B182698B
:100E300041698A5C1A61826901328261C269002A51
:100E4000D2D15A6822F480625A60CDE75A695207BB
:100E5000CAD55A689105C7D5B5E75A6952060CD567
:100E60005A68510509D55A69520706D4052282727B
:100E7000196942698369D154ABE75A695107B3D5FF
:100E80005A689205B0D5F1E7005400404C050020A7
:100E90000058004050050020034B98420CBF034B04
:100EA000034B1868FFF731BF005400404C05002089
:100EB0005005002070477047704770477047704773
:100EC000704770477047704770477047704770476A
:100ED000704770477047704770477047704770475A
:100EE000704770477047704770477047704770474A
:100EF000704770470148FFF74FBF00BF00540040E4
:100F00000148FFF7C9BF00BF005400400148FFF788
:100F100043BF00BF005800400148FFF7BDBF00BFFE
:100F200000580040704770477047704770477047DF
:100F300070477047704770477047704770477047F9
:100F400070477047704770477047704770477047E9
:100F5000704770472C4B1A6842F001021A605968BA
:100F60002A4A0A405A601A6822F0847222F48032B7
:100F70001A601A6822F480221A605A6822F4FE026B
:100F80005A604FF41F029A601A6842F480321A6065
:100F90006FF07F421968880301D4013AFAD11A68C8
:100FA000910330D51A4A116841F01001116011689F
:100FB00021F007011160116841F0040111605A68C5
:100FC00042F480625A605A6822F47C125A605A686D
:100FD00042F4E8125A601A6842F080721A601A6885
:100FE0009201FCD55A6822F003025A605A6842F016
:100FF00002025A605A6802F00C02082AFAD11A68F2
:1010000042F400221A607047001002400000FFF016
:10101000002002400D488546FFF7F8FB0C480D49BB
:101020000D4A002302E0D458C4500433C4188C4243
:10103000F9D30A4A0A4C002301E013600432A242A9
:10104000FBD300F011F8FFF707FCFEE7005000208B
:101050000001002000010020D01000080001002045
:1010600054050020FEE7000070B500260C4D0D4C25
:10107000641BA410A64209D100F01AF800260A4DFC
:101080000A4C641BA410A64205D170BD55F8043B60
:1010900098470136EEE755F8043B98470136F2E7EA
:1010A000C8100008C8100008C8100008CC100008BC
:1010B000F8B500BFF8BC08BC9E467047F8B500BF45
:0810C000F8BC08BC9E46704715
:0410C80055010008C6
:0410CC0031010008E6
:0400000508001015CA
:00000001FF
